:020000040800F2
:1000000000280020BD1900086117000867170008C4
:100010006D1700087317000879170008000000002A
:100020000000000000000000000000007F17000832
:100030008B1700080000000097170008A31700089E
:10004000051A0008051A0008051A0008051A000814
:10005000051A0008051A0008051A0008051A000804
:10006000051A0008051A0008051A0008051A0008F4
:10007000051A0008051A0008051A0008051A0008E4
:10008000051A0008051A0008051A0008051A0008D4
:10009000051A0008051A0008051A0008051A0008C4
:1000A000051A0008051A0008051A0008051A0008B4
:1000B000B1170008051A000800000000051A000822
:1000C000051A00080000000000000000051A0008E2
:1000D00000000000051A0008051A000800000000D2
:1000E000051A0008051A0008051A0008000000009B
:1000F0000000000000000000000000000000000000
:0C01000000000000000000005FF808F1A3
:10010C0010B5054C237833B9044B13B10448AFF345
:10011C0000800123237010BD64000020000000004B
:10012C003430000808B5034B1BB103490348AFF347
:10013C00008008BD0000000068000020343000087A
:10014C0080B483B000AF7860094A7B6852F82330E2
:10015C00012B06D1064A7B68002142F823100123AB
:10016C0000E0002318460C37BD4680BC704700BF2A
:10017C008000002080B483B000AF7860044A7B68B4
:10018C00012142F8231000BF0C37BD4680BC7047DC
:10019C008000002080B582B000AF00237B6073E04C
:1001AC003D4A7B6852F823203C497B6841F8232068
:1001BC003B4A7B6852F8232037497B6841F823205F
:1001CC00384A7B6852F823309BB21946364801F006
:1001DC00FFFE03461946324A7B6842F823102E4A2A
:1001EC007B6852F823202E497B6851F823309A42C1
:1001FC0047D1294A7B6852F8232028497B6851F85B
:10020C0023309A423DD1254A7B6852F82320274956
:10021C007B6851F823309A4216D0204A7B6852F8FA
:10022C00232022497B6841F82320204A7B6852F81E
:10023C002330002B25D11E4A7B68C82142F823109D
:10024C007868FFF797FF1CE0194A7B6852F8233057
:10025C005A1E17497B6841F82320154A7B6852F8CF
:10026C002330002B0DD1124A7B68C82142F8231091
:10027C000E4A7B6852F82330002B02D17868FFF7C6
:10028C0079FF7B6801337B607B68022B88DD00BFC4
:10029C0000BF0837BD4680BD0C00002018000020B0
:1002AC000000002030000020000801402400002045
:1002BC003C00002080B500AF404B1B68012B6FD178
:1002CC003F4B1B68092B6DD801A252F823F000BFDD
:1002DC0005030008B1030008B1030008B1030008CE
:1002EC00B1030008B10300080D0300083503000832
:1002FC005D03000885030008314B06221A605AE0A2
:10030C0001F0C6FA2F4B1B6801332E4A13602D4B9C
:10031C001A682D4B1B689A4246DB294B07221A6040
:10032C00284B00221A603FE001F0D6FA254B1B68DF
:10033C000133244A1360234B1A68244B1B689A42DE
:10034C0034DB1F4B08221A601E4B00221A602DE072
:10035C0001F0E6FA1B4B1B6801331A4A1360194B68
:10036C001A68194B1B689A4222DB154B09221A603A
:10037C00144B00221A601BE001F0F6FA114B1B68BB
:10038C000133104A13600F4B1A68104B1B689A42CA
:10039C0010DB0B4B06221A600A4B00221A6009E094
:1003AC0000BF08E000BF06E000BF04E000BF02E0B1
:1003BC0000BF00E000BF00BF80BD00BF48000020B0
:1003CC0090000020980000205400002050000020D5
:1003DC0080B582B000AF7860234B1B68002B02D035
:1003EC00012B19D03BE07B68204A82FB0312921050
:1003FC00DB17D31A184600F02DF91D4B1B681B4A4E
:10040C0082FB03129210DB17D31A184600F0B0FAD5
:10041C00154B01221A6022E07A68144B83FB0213FD
:10042C009910D317C91A0B469B000B445B00D11AC9
:10043C00084600F00FF90E4B1A680C4B83FB0213A5
:10044C009910D317C91A0B469B000B445B00D11AA9
:10045C00084600F08DFA044B00221A6000BF00BF62
:10046C000837BD4680BD00BF8C00002067666666FD
:10047C004800002080B500AF6C4B1B68013B032B80
:10048C0000F2C98001A252F823F000BFA9040008B1
:10049C00CB0400082D0500088D0500080020FFF78F
:1004AC004FFE0346012B40F0B880604B02221A60CD
:1004BC005F4B00221A605F4B00221A60ADE05E4B6E
:1004CC001B681846FFF784FF01F07CF90020FFF74A
:1004DC0037FE0346012B05D1544B03221A60564BB1
:1004EC0000221A600120FFF72BFE0346012B0BD1D3
:1004FC00514B1B680133504A13604F4B1B68632BE5
:10050C0002DD4D4B01221A600220FFF719FE034653
:10051C00012B40F08480484B1B68484A13607EE0F6
:10052C00474B1B681846FFF753FF01F08FF900206B
:10053C00FFF706FE0346012B05D13C4B04221A6043
:10054C003F4B00221A600120FFF7FAFD0346012BF6
:10055C000BD13B4B1B680133394A1360384B1B687A
:10056C00632B02DD364B01221A600220FFF7E8FDF7
:10057C000346012B55D1324B1B68324A136050E0B5
:10058C00314B1B681846FFF723FF01F03DF90020A3
:10059C00FFF7D6FD0346012B05D1244B01221A602F
:1005AC00294B00221A600120FFF7CAFD0346012BDC
:1005BC000BD1254B1B680133234A1360224B1B685C
:1005CC00632B02DD204B01221A600220FFF7B8FDDD
:1005DC000346012B27D11C4B1B681C4A13601A4B7A
:1005EC001A68174B1B681344134A1360124B1B6891
:1005FC00124A1360124B1B68124A1360124B1B6891
:10060C00124A136000F0C6FB094B00221A60104B13
:10061C0000221A6007E000BF06E000BF04E000BF44
:10062C0002E000BF00E000BF00BF80BD480000201A
:10063C0090000020980000209C0000204C0000201E
:10064C00A000002050000020A40000205400002036
:10065C009400002080B582B000AF78607B68092BD5
:10066C0000F2808101A252F823F000BFA10600081D
:10067C00E90600083107000879070008C1070008DF
:10068C00090800085108000899080008E10800084A
:10069C002909000800220121B44801F0B0FC002215
:1006AC000221B24801F0ABFC00220421AF4801F05A
:1006BC00A6FC00220821AD4801F0A1FC002210216B
:1006CC00AA4801F09CFC00222021A84801F097FCCC
:1006DC0001224021A54801F092FC43E101220121B5
:1006EC00A24801F08CFC00220221A04801F087FCFA
:1006FC00002204219D4801F082FC012208219B4824
:10070C0001F07DFC01221021984801F078FC0122B7
:10071C002021964801F073FC01224021934801F0FE
:10072C006EFC1FE100220121904801F068FC0022C0
:10073C0002218E4801F063FC012204218B4801F058
:10074C005EFC00220821894801F059FC002210218E
:10075C00864801F054FC01222021844801F04FFC12
:10076C0000224021814801F04AFCFBE000220121DB
:10077C007E4801F044FC002202217C4801F03FFC41
:10078C0000220421794801F03AFC00220821774824
:10079C0001F035FC01221021744801F030FC0122DB
:1007AC002021724801F02BFC002240216F4801F0FF
:1007BC0026FCD7E0012201216C4801F020FC00222C
:1007CC0002216A4801F01BFC00220421674801F059
:1007DC0016FC01220821654801F011FC01221021B0
:1007EC00624801F00CFC00222021604801F007FC5B
:1007FC00002240215D4801F002FCB3E000220121FF
:10080C005A4801F0FCFB01220221584801F0F7FB89
:10081C0000220421554801F0F2FB00220821534824
:10082C0001F0EDFB01221021504801F0E8FB002201
:10083C0020214E4801F0E3FB002240214B4801F0FF
:10084C00DEFB8FE000220121484801F0D8FB012299
:10085C000221464801F0D3FB00220421434801F059
:10086C00CEFB00221021414801F0C9FB00220821D7
:10087C003E4801F0C4FB002220213C4801F0BFFBA4
:10088C0000224021394801F0BAFB6BE00022012123
:10089C00364801F0B4FB00220221344801F0AFFBD2
:1008AC0000220421314801F0AAFB012208212F4823
:1008BC0001F0A5FB012210212C4801F0A0FB012224
:1008CC0020212A4801F09BFB01224021274801F0FE
:1008DC0096FB47E000220121244801F090FB002206
:1008EC000221224801F08BFB002204211F4801F059
:1008FC0086FB002208211D4801F081FB00221021FB
:10090C001A4801F07CFB00222021184801F077FBEB
:10091C0000224021154801F072FB23E00022012146
:10092C00124801F06CFB00220221104801F067FB19
:10093C00002204210D4801F062FB002208210B4823
:10094C0001F05DFB01221021084801F058FB002248
:10095C002021064801F053FB00224021034801F0FE
:10096C004EFB00BF00BF0837BD4680BD000C0140E8
:10097C0080B582B000AF78607B68092B00F2BC8137
:10098C0001A252F823F000BFBD090008110A0008AB
:10099C00650A0008B90A00080D0B0008610B000875
:1009AC00B50B0008090C00085D0C0008B10C000820
:1009BC0000228021D24801F022FB00224FF48071EA
:1009CC00CF4801F01CFB00224FF40071CC4801F021
:1009DC0016FB00224FF48061C94801F010FB002285
:1009EC004FF40061C64801F00AFB00224FF480511D
:1009FC00C34801F004FB01224FF40051C04801F040
:100A0C00FEFA79E101228021BD4801F0F8FA0022BA
:100A1C004FF48071BA4801F0F2FA00224FF40071E1
:100A2C00B74801F0ECFA01224FF48061B44801F0B0
:100A3C00E6FA01224FF40061B14801F0E0FA01221C
:100A4C004FF48051AE4801F0DAFA01224FF4005114
:100A5C00AB4801F0D4FA4FE100228021A84801F004
:100A6C00CEFA00224FF48071A54801F0C8FA012299
:100A7C004FF40071A24801F0C2FA00224FF48061D9
:100A8C009F4801F0BCFA00224FF400619C4801F031
:100A9C00B6FA01224FF48051994801F0B0FA0022C5
:100AAC004FF40051964801F0AAFA25E1002280216A
:100ABC00934801F0A4FA00224FF48071904801F0A1
:100ACC009EFA00224FF400718D4801F098FA002232
:100ADC004FF480618A4801F092FA01224FF40061D0
:100AEC00874801F08CFA01224FF48051844801F0C0
:100AFC0086FA00224FF40051814801F080FAFBE0A5
:100B0C00012280217E4801F07AFA00224FF4807194
:100B1C007B4801F074FA00224FF40071784801F020
:100B2C006EFA01224FF48061754801F068FA0122D7
:100B3C004FF40061724801F062FA00224FF48051C8
:100B4C006F4801F05CFA00224FF400516C4801F040
:100B5C0056FAD1E000228021694801F050FA0122B6
:100B6C004FF48071664801F04AFA00224FF400718C
:100B7C00634801F044FA00224FF48061604801F0B0
:100B8C003EFA01224FF400615D4801F038FA002270
:100B9C004FF480515A4801F032FA00224FF40051C0
:100BAC00574801F02CFAA7E000228021544801F0AC
:100BBC0026FA01224FF48071514801F020FA0022EC
:100BCC004FF400714E4801F01AFA00224FF4806184
:100BDC004B4801F014FA00224FF40061484801F030
:100BEC000EFA00224FF48051454801F008FA002219
:100BFC004FF40051424801F002FA7DE000228021BE
:100C0C003F4801F0FCF900224FF480713C4801F0A0
:100C1C00F6F900224FF40071394801F0F0F9012285
:100C2C004FF48061364801F0EAF901224FF400617B
:100C3C00334801F0E4F901224FF48051304801F0BF
:100C4C00DEF901224FF400512D4801F0D8F953E0A0
:100C5C00002280212A4801F0D2F900224FF4807141
:100C6C00274801F0CCF900224FF40071244801F020
:100C7C00C6F900224FF48061214801F0C0F900222E
:100C8C004FF400611E4801F0BAF900224FF4805174
:100C9C001B4801F0B4F900224FF40051184801F040
:100CAC00AEF929E000228021154801F0A8F90022B4
:100CBC004FF48071124801F0A2F900224FF4007138
:100CCC000F4801F09CF900224FF480610C4801F0B0
:100CDC0096F901224FF40061094801F090F90022C5
:100CEC004FF48051064801F08AF900224FF400516C
:100CFC00034801F084F900BF00BF0837BD4680BD32
:100D0C00000C014080B500AF204B1B68002B02D0BB
:100D1C00012B1CD037E000224FF480711C4801F0ED
:100D2C006EF901224FF40071194801F068F90022A4
:100D3C004FF48061164801F062F901224FF4006112
:100D4C00134801F05CF9114B01221A601BE00122DF
:100D5C004FF480710E4801F052F900224FF40071EB
:100D6C000B4801F04CF901224FF48061084801F066
:100D7C0046F900224FF40061054801F040F9034B9D
:100D8C0000221A6000BF00BF80BD00BFC000002061
:100D9C000008014080B400AF274B1B68274A82FB38
:100DAC0003129210DB17D31A254A1360224B1968D1
:100DBC00224B83FB01239A10CB17D21A13469B00AC
:100DCC0013445B00CA1A1E4B5A601E4B1B681B4A0D
:100DDC0082FB03129210DB17D31A194A9360194B3A
:100DEC001968164B83FB01239A10CB17D21A1346A2
:100DFC009B0013445B00CA1A114BDA60124B1B6840
:100E0C000E4A82FB03129210DB17D31A0C4A1361A1
:100E1C000D4B1968094B83FB01239A10CB17D21A7F
:100E2C0013469B0013445B00CA1A054B5A6100BF62
:100E3C00BD4680BC704700BF4C00002067666666EC
:100E4C00A8000020540000205000002080B483B083
:100E5C0000AF00237B6081E07B680133444A52F889
:100E6C002330002B14DA424A7B6852F82330002BD3
:100E7C000EDD7B6801333E4A092142F823103C4ABF
:100E8C007B6852F823305A1E39497B6841F823207D
:100E9C00374A7B6852F82330002B5CD17B680133D6
:100EAC00334A52F82330002B55D17B68002B19D1D3
:100EBC00304B1B68304A82FB03129210DB17D31A9B
:100ECC002B4A13602B4B19682B4B83FB01239A1075
:100EDC00CB17D21A13469B0013445B00CA1A244B3F
:100EEC005A6038E07B68022B19D1244B1B68224ACC
:100EFC0082FB03129210DB17D31A1D4A93601F4B0F
:100F0C0019681D4B83FB01239A10CB17D21A134679
:100F1C009B0013445B00CA1A154BDA601BE07B681C
:100F2C00042B18D1164B1B68134A82FB0312921028
:100F3C00DB17D31A0E4A1361114B19680E4B83FB46
:100F4C0001239A10CB17D21A13469B0013445B0053
:100F5C00CA1A074B5A617B6802337B607B68052B8E
:100F6C007FF77AAF00BF00BF0C37BD4680BC70471F
:100F7C00A80000204C000020676666665400002024
:100F8C005000002080B500AF174B1B68002B02D01F
:100F9C00012B0ED025E0154B1B691846FFF75AFBA9
:100FAC00124B1B681846FFF7E3FC0F4B01221A602B
:100FBC0017E00E4B5B691846FFF74CFB0B4B5B685D
:100FCC001846FFF7D5FC094B5B68013B074A536099
:100FDC00064B5B69013B054A5361034B00221A60C7
:100FEC0000BF00BF80BD00BF94000020A8000020FF
:100FFC0080B500AF174B1B68002B02D0012B0ED015
:10100C0025E0154B9B681846FFF724FB124B1B6819
:10101C001846FFF7ADFC0F4B01221A6017E00E4B80
:10102C00DB681846FFF716FB0B4B5B681846FFF79F
:10103C009FFC094B5B68013B074A5360064BDB681E
:10104C00013B054AD360034B00221A6000BF00BF6E
:10105C0080BD00BF94000020A800002080B500AF28
:10106C00174B1B68002B02D0012B0ED025E0154B23
:10107C001B681846FFF7EEFA124B1B691846FFF770
:10108C0077FC0F4B01221A6017E00E4B5B68184679
:10109C00FFF7E0FA0B4B5B691846FFF769FC094B4D
:1010AC005B68013B074A5360064B5B69013B054A91
:1010BC005361034B00221A6000BF00BF80BD00BF0C
:1010CC0094000020A800002080B500AF174B1B68CF
:1010DC00002B02D0012B0ED025E0154B1B681846B7
:1010EC00FFF7B8FA124B9B681846FFF741FC0F4B01
:1010FC0001221A6017E00E4B5B681846FFF7AAFA3C
:10110C000B4BDB681846FFF733FC094B5B68013B64
:10111C00074A5360064BDB68013B054AD360034B1F
:10112C0000221A6000BF00BF80BD00BF94000020E9
:10113C00A800002080B500AF154B1B68092B23D8E5
:10114C0001A252F823F000BF951100089511000878
:10115C0095110008951100089511000895110008CB
:10116C007D11000883110008891100088F110008F7
:10117C00FFF7AAFF09E0FFF771FF06E0FFF738FF62
:10118C0003E0FFF7FFFE00E000BF00BF80BD00BF23
:10119C009000002080B500AF2021024800F047FFEE
:1011AC0000BF80BD0008014080B500AF00F026FCF8
:1011BC0000F038F800F0BEF800F070F8124801F0BA
:1011CC007BFB00F020F96422C821104800F09EF946
:1011DC00642200210E4800F099F9322200210D48BA
:1011EC0000F094F9322200210B4800F08FF93222E2
:1011FC0000210A4800F08AF932220021084800F048
:10120C0085F900F0D5F9FCE7C4000020A111000815
:10121C00C102000841110008110D000881040008EA
:10122C00590E000880B590B000AF07F118032822C2
:10123C000021184601F0F0FE3B1D00221A605A6096
:10124C009A60DA601A610223BB610123BB6210232E
:10125C00FB6200237B6307F11803184600F000FFC4
:10126C000346002B01D000F0C9F80F237B6000234C
:10127C00BB600023FB6000233B6100237B613B1DB3
:10128C000021184601F06CF90346002B01D000F048
:10129C00B5F800BF4037BD4680BD000080B586B0B4
:1012AC0000AF07F1080300221A605A609A60DA60F6
:1012BC003B4600221A605A601D4B4FF080421A6068
:1012CC001B4B41F63F725A60194B00229A60184B27
:1012DC000922DA60164B00221A61154B00229A6122
:1012EC00134801F099FA0346002B01D000F086F860
:1012FC004FF48053BB6007F1080319460C4801F00A
:10130C0017FC0346002B01D000F078F800233B605B
:10131C0000237B603B461946054801F0EFFD034670
:10132C00002B01D000F06AF800BF1837BD4680BD15
:10133C00C400002080B586B000AF07F1080300227E
:10134C001A605A609A60DA60234B9B69224A43F018
:10135C0004039361204B9B6903F004037B607B685F
:10136C001D4B9B691C4A43F0080393611A4B9B6904
:10137C0003F008033B603B6840F6FE73BB6001233F
:10138C00FB6000233B6102237B6107F108031946D4
:10139C00124800F0A3FC4FF46043BB600023FB60D9
:1013AC0001233B6107F1080319460C4800F096FC39
:1013BC0043F6FF73BB600123FB6000233B610223F8
:1013CC007B6107F108031946054800F087FC00BF54
:1013DC001837BD4680BD00BF001002400008014018
:1013EC00000C014080B582B000AF786000F020F8AE
:1013FC00FEF7D0FE00BF0837BD4680BD80B400AFFD
:10140C0072B600BFFEE780B582B000AF0023FB715F
:10141C0006E0FB79184600F015F9FB790133FB71F6
:10142C00FB79272BF5D900BF00BF0837BD4680BD1F
:10143C0080B483B000AF0023FB715CE0FA793249D1
:10144C0013469B0013449B000B441B68002B4FD08E
:10145C00FA792D4913469B0013449B000B4404332B
:10146C001B68002B32D1FA79274913469B00134491
:10147C009B000B440C331B78FA790133D8B2224908
:10148C0013469B0013449B000B440C3302461A700A
:10149C00FA791D4913469B0013449B000B440833F7
:1014AC001B68002B24D0F979FA7917480B469B005E
:1014BC000B449B00034408331968134813469B00E4
:1014CC0013449B0003440433196011E0FA790E496C
:1014DC0013469B0013449B000B4404331B68591E9A
:1014EC00094813469B0013449B00034404331960C2
:1014FC00FB790133FB71FB79272B9FD900BF00BF10
:10150C000C37BD4680BC70470C01002080B487B0FE
:10151C0000AFF860B9607A600023FB7502E0FB7DD8
:10152C000133FB75FA7D214913469B0013449B0044
:10153C000B441B68002B02D0FB7D272BEFD9FA7DC7
:10154C001A4913469B0013449B000B44FA681A601B
:10155C00FA7D164913469B0013449B000B4404333D
:10156C00BA681A60FA7D114913469B0013449B001C
:10157C000B4408337A681A60FA7D0C4913469B00B9
:10158C0013449B000B440C3300221A70FA7DF97D36
:10159C00064813469B0013449B0003441033196008
:1015AC0000BF1C37BD4680BC704700BF0C0100203B
:1015BC0080B582B000AF0023FB7139E0FA79204985
:1015CC0013469B0013449B000B440C331B78002BDD
:1015DC002BD0FA791A4913469B0013449B000B44F9
:1015EC001B689847FA79164913469B0013449B00D5
:1015FC000B440C331B78013BD8B2114913469B00AA
:10160C0013449B000B440C3302461A70FA790C49B4
:10161C0013469B0013449B000B4408331B68002BA0
:10162C0003D1FB79184600F00DF8FB790133FB71FF
:10163C00FB79272BC2D900BF00BF0837BD4680BD40
:10164C000C01002080B483B000AF786015497A6833
:10165C0013469B0013449B000B4400221A60114953
:10166C007A6813469B0013449B000B4404330022FE
:10167C001A600C497A6813469B0013449B000B4478
:10168C00083300221A6007497A6813469B001344FA
:10169C009B000B440C3300221A7000BF0C37BD4664
:1016AC0080BC70470C01002080B485B000AF154B96
:1016BC009B69144A43F001039361124B9B6903F03D
:1016CC000103BB60BB680F4BDB690E4A43F08053D0
:1016DC00D3610C4BDB6903F080537B607B680A4B56
:1016EC005B68FB60FB6823F0E063FB60FB6843F026
:1016FC008063FB60044AFB68536000BF1437BD462F
:10170C0080BC7047001002400000014080B584B0DE
:10171C0000AF78607B681B68B3F1804F13D10C4B22
:10172C00DB690B4A43F00103D361094BDB6903F01E
:10173C000103FB60FB68002200211C2000F097FADB
:10174C001C2000F0B0FA00BF1037BD4680BD00BFB2
:10175C000010024080B400AFFEE780B400AFFEE79B
:10176C0080B400AFFEE780B400AFFEE780B400AFFA
:10177C00FEE780B400AF00BFBD4680BC704780B4AC
:10178C0000AF00BFBD4680BC704780B400AF00BF47
:10179C00BD4680BC704780B500AF00F075F900BF46
:1017AC0080BD000080B500AF024801F0D1F800BF49
:1017BC0080BD00BFC400002080B400AF00BFBD4698
:1017CC0080BC704780B500AF002240210D4800F06E
:1017DC0016FC002280210B4800F011FC0022042191
:1017EC00084800F00CFC00220821064800F007FC19
:1017FC000221044800F01BFC1021024800F017FCE9
:10180C0000BF80BD0008014080B500AF0022402120
:10181C000D4800F0F4FB002210210B4800F0EFFB08
:10182C0000220421084800F0EAFB002202210648AD
:10183C0000F0E5FB0821044800F0F9FB8021024888
:10184C0000F0F5FB00BF80BD0008014080B500AF83
:10185C00002280210D4800F0D2FB002210210B4801
:10186C0000F0CDFB00220821084800F0C8FB002244
:10187C000221064800F0C3FB0421044800F0D7FB0A
:10188C004021024800F0D3FB00BF80BD000801409E
:10189C0080B500AF012202210E4800F0B0FB0022FF
:1018AC0004210C4800F0ABFB00220821094800F091
:1018BC00A6FB00221021074800F0A1FB00224021CA
:1018CC00044800F09CFB01228021024800F097FBA9
:1018DC0000BF80BD0008014080B500AF012202218D
:1018EC000E4800F08CFB002204210C4800F087FB12
:1018FC0000220821094800F082FB00221021074831
:10190C0000F07DFB01224021044800F078FB00220E
:10191C008021024800F073FB00BF80BD000801402D
:10192C0080B500AF002202210E4800F068FB0022B7
:10193C0004210C4800F063FB01220821094800F047
:10194C005EFB01221021074800F059FB00224021C8
:10195C00044800F054FB00228021024800F04FFBA9
:10196C0000BF80BD0008014080B500AF00220221FD
:10197C000E4800F044FB012204210C4800F03FFB10
:10198C0000220821094800F03AFB012210210748E7
:10199C0000F035FB00224021044800F030FB00220F
:1019AC008021024800F02BFB00BF80BD00080140E5
:1019BC00FFF702FF0B480C490C4A002302E0D458F5
:1019CC00C4500433C4188C42F9D3094A094C00237F
:1019DC0001E013600432A242FBD301F0F9FAFFF7E5
:1019EC00E3FB704700000020640000207830000802
:1019FC006400002030040020FEE7000080B500AF3A
:101A0C00084B1B68074A43F010031360032000F0D7
:101A1C0023F90F2000F008F8FFF746FE00231846C4
:101A2C0080BD00BF0020024080B582B000AF78605E
:101A3C00124B1A68124B1B7819464FF47A73B3FB8E
:101A4C00F1F3B2FBF3F3184600F03BF90346002B1D
:101A5C0001D001230EE07B680F2B0AD80022796895
:101A6C004FF0FF3000F003F9064A7B681360002347
:101A7C0000E0012318460837BD4680BD5800002001
:101A8C00600000205C00002080B400AF054B1B7888
:101A9C001A46054B1B681344034A136000BFBD462E
:101AAC0080BC7047600000202C04002080B400AF84
:101ABC00024B1B681846BD4680BC70472C040020A6
:101ACC0080B485B000AF78607B6803F00703FB60DF
:101ADC000C4BDB68BB60BA684FF6FF031340BB606E
:101AEC00FB681A02BB68134343F0BF6343F4003333
:101AFC00BB60044ABB68D36000BF1437BD4680BCD2
:101B0C00704700BF00ED00E080B400AF044BDB6811
:101B1C001B0A03F007031846BD4680BC704700BF84
:101B2C0000ED00E080B483B000AF0346FB7197F981
:101B3C000730002B0BDBFB7903F01F02064997F9EA
:101B4C0007305B09012000FA02F241F8232000BFA4
:101B5C000C37BD4680BC704700E100E080B483B018
:101B6C0000AF03463960FB7197F90730002B0ADB95
:101B7C003B68DAB20C4997F907301201D2B20B4428
:101B8C0083F800230AE03B68DAB20849FB7903F0DA
:101B9C000F03043B1201D2B20B441A7600BF0C3770
:101BAC00BD4680BC704700BF00E100E000ED00E0E6
:101BBC0080B489B000AFF860B9607A60FB6803F05C
:101BCC000703FB61FB69C3F10703042B28BF042344
:101BDC00BB61FB690433062B02D9FB69033B00E0B4
:101BEC0000237B614FF0FF32BB6902FA03F3DA4347
:101BFC00BB681A407B699A404FF0FF317B6901FA50
:101C0C0003F3D9437B680B40134318462437BD4676
:101C1C0080BC704780B582B000AF78607B68013BB8
:101C2C00B3F1807F01D301230FE00A4A7B68013BAB
:101C3C0053600F214FF0FF30FFF790FF054B002250
:101C4C009A60044B07221A60002318460837BD46D9
:101C5C0080BD00BF10E000E080B582B000AF7860BE
:101C6C007868FFF72DFF00BF0837BD4680BD80B5F3
:101C7C0086B000AF0346B9607A60FB7300237B61CA
:101C8C00FFF742FF78617A68B9687869FFF790FFCF
:101C9C00024697F90F3011461846FFF75FFF00BF59
:101CAC001837BD4680BD80B582B000AF0346FB71CE
:101CBC0097F907301846FFF735FF00BF0837BD46C8
:101CCC0080BD80B582B000AF78607868FFF7A2FF66
:101CDC00034618460837BD4680BD000080B48BB063
:101CEC0000AF7860396000237B6200233B6248E1DF
:101CFC0001227B6A02FA03F3FB613B681B68FA69F9
:101D0C001340BB61BA69FB699A4240F037813B686A
:101D1C005B68A34A93425ED0A14A934275D8A14A0C
:101D2C00934258D09F4A93426FD89F4A934252D0C5
:101D3C009D4A934269D89D4A93424CD09B4A934208
:101D4C0063D89B4A934246D0994A93425DD8122B52
:101D5C002AD8122B59D801A252F823F0E31D0008FF
:101D6C00BD1D0008CF1D0008111E0008171E00081D
:101D7C00171E0008171E0008171E0008171E000863
:101D8C00171E0008171E0008171E0008171E000853
:101D9C00171E0008171E0008171E0008171E000843
:101DAC00C51D0008D91D0008824A934213D02CE0AF
:101DBC003B68DB683B6229E03B68DB6804333B62D1
:101DCC0024E03B68DB6808333B621FE03B68DB6860
:101DDC000C333B621AE03B689B68002B02D1042356
:101DEC003B6213E03B689B68012B05D108233B62E7
:101DFC007B68FA691A6109E008233B627B68FA691F
:101E0C005A6103E000233B6200E000BFBB69FF2B7B
:101E1C0001D87B6801E07B6804337B61BB69FF2BD5
:101E2C0002D87B6A9B0002E07B6A083B9B003B610B
:101E3C007B691A680F213B6901FA03F3DB431A40F3
:101E4C00396A3B6901FA03F31A437B691A603B68F0
:101E5C005B6803F08053002B00F09080564B9B691D
:101E6C00554A43F001039361534B9B6903F0010303
:101E7C00BB60BB68514A7B6A9B08023352F8233023
:101E8C00FB607B6A03F003039B000F2202FA03F34F
:101E9C00DB43FA681340FB607B68494A93420DD0E0
:101EAC007B68484A934207D07B68474A934201D1EA
:101EBC00022304E0032302E0012300E000237A6AFA
:101ECC0002F0030292009340FA681343FB603B4913
:101EDC007B6A9B080233FA6841F823203B685B68F5
:101EEC0003F48013002B06D0384B9A683749BB6932
:101EFC0013438B6006E0354B9A68BB69DB4333496F
:101F0C0013408B603B685B6803F40013002B06D016
:101F1C002E4BDA682D49BB691343CB6006E02B4B83
:101F2C00DA68BB69DB4329491340CB603B685B68CB
:101F3C0003F40033002B06D0244B5A682349BB69A9
:101F4C0013434B6006E0214B5A68BB69DB431F49C6
:101F5C0013404B603B685B6803F48033002B06D066
:101F6C001A4B1A681949BB6913430B6006E0174BEF
:101F7C001A68BB69DB43154913400B607B6A01335C
:101F8C007B623B681A687B6A22FA03F3002B7FF4AE
:101F9C00AFAE00BF00BF2C37BD4680BC704700BF42
:101FAC00000032100000311000002210000021103F
:101FBC00000012100000111000100240000001403F
:101FCC0000080140000C01400010014000040140D9
:101FDC0080B485B000AF78600B467B807B689A68D4
:101FEC007B881340002B02D00123FB7301E00023FC
:101FFC00FB73FB7B18461437BD4680BC704780B41E
:10200C0083B000AF78600B467B8013467B707B7887
:10201C00002B03D07A887B681A6103E07B881A0452
:10202C007B681A6100BF0C37BD4680BC704780B41A
:10203C0085B000AF78600B467B807B68DB68FB600B
:10204C007A88FB6813401A04FB68D9437B880B40E1
:10205C001A437B681A6100BF1437BD4680BC7047B9
:10206C0080B586B000AF78607B68002B01D101236E
:10207C006CE27B681B6803F00103002B00F0878087
:10208C00924B5B6803F00C03042B0CD08F4B5B68FA
:10209C0003F00C03082B12D18C4B5B6803F48033D8
:1020AC00B3F5803F0BD1894B1B6803F40033002B35
:1020BC006CD07B685B68002B68D1012346E27B689F
:1020CC005B68B3F5803F06D1804B1B687F4A43F4B5
:1020DC00803313602EE07B685B68002B0CD17B4B4C
:1020EC001B687A4A23F480331360784B1B68774A59
:1020FC0023F4802313601DE07B685B68B3F5A02F8D
:10210C000CD1724B1B68714A43F4802313606F4BE4
:10211C001B686E4A43F4803313600BE06B4B1B68F7
:10212C006A4A23F480331360684B1B68674A23F4B4
:10213C00802313607B685B68002B13D0FFF7B6FC21
:10214C00386108E0FFF7B2FC02463B69D31A642BF6
:10215C0001D90323FAE15D4B1B6803F40033002B18
:10216C00F0D014E0FFF7A2FC386108E0FFF79EFC0A
:10217C0002463B69D31A642B01D90323E6E1534B86
:10218C001B6803F40033002BF0D100E000BF7B6828
:10219C001B6803F00203002B63D04C4B5B6803F00D
:1021AC000C03002B0BD0494B5B6803F00C03082B82
:1021BC001CD1464B5B6803F48033002B16D1434B88
:1021CC001B6803F00203002B05D07B681B69012BF5
:1021DC0001D00123BAE13D4B1B6823F0F8027B6868
:1021EC005B69DB00394913430B603AE07B681B6980
:1021FC00002B20D0364B01221A60FFF757FC3861B8
:10220C0008E0FFF753FC02463B69D31A022B01D9B5
:10221C0003239BE12D4B1B6803F00203002BF0D032
:10222C002A4B1B6823F0F8027B685B69DB002749AB
:10223C0013430B6015E0264B00221A60FFF736FCA7
:10224C00386108E0FFF732FC02463B69D31A022BD7
:10225C0001D903237AE11D4B1B6803F00203002B09
:10226C00F0D17B681B6803F00803002B3AD07B6825
:10227C009B69002B19D0174B01221A60FFF716FC33
:10228C00386108E0FFF712FC02463B69D31A022BB7
:10229C0001D903235AE10D4B5B6A03F00203002BB7
:1022AC00F0D0012000F09AFA1CE00A4B00221A60D0
:1022BC00FFF7FCFB38610FE0FFF7F8FB02463B69C8
:1022CC00D31A022B08D9032340E100BF00100240AF
:1022DC0000004242800442429E4B5B6A03F00203C0
:1022EC00002BE9D17B681B6803F00403002B00F082
:1022FC00A6800023FB75974BDB6903F08053002B02
:10230C000DD1944BDB69934A43F08053D361914BCD
:10231C00DB6903F08053BB60BB680123FB758E4BFC
:10232C001B6803F48073002B18D18B4B1B688A4AF3
:10233C0043F480731360FFF7B9FB386108E0FFF7D3
:10234C00B5FB02463B69D31A642B01D90323FDE08C
:10235C00814B1B6803F48073002BF0D07B68DB6827
:10236C00012B06D17B4B1B6A7A4A43F001031362A3
:10237C002DE07B68DB68002B0CD1764B1B6A754A11
:10238C0023F001031362734B1B6A724A23F004039C
:10239C0013621CE07B68DB68052B0CD16D4B1B6A50
:1023AC006C4A43F0040313626A4B1B6A694A43F09C
:1023BC00010313620BE0674B1B6A664A23F00103AF
:1023CC001362644B1B6A634A23F0040313627B6839
:1023DC00DB68002B15D0FFF769FB38610AE0FFF7CB
:1023EC0065FB02463B69D31A41F28832934201D90C
:1023FC000323ABE0574B1B6A03F00203002BEED018
:10240C0014E0FFF753FB38610AE0FFF74FFB02467D
:10241C003B69D31A41F28832934201D9032395E0E8
:10242C004C4B1B6A03F00203002BEED1FB7D012BFE
:10243C0005D1484BDB69474A23F08053D3617B6855
:10244C00DB69002B00F08180424B5B6803F00C03CE
:10245C00082B61D07B68DB69022B46D13F4B0022F5
:10246C001A60FFF723FB386108E0FFF71FFB0246F9
:10247C003B69D31A022B01D9032367E0354B1B6848
:10248C0003F00073002BF0D17B681B6AB3F5803F1F
:10249C0008D1304B5B6823F400327B689B682D4974
:1024AC0013434B602B4B5B6823F474127B68196AE3
:1024BC007B685B6A0B43274913434B60274B012214
:1024CC001A60FFF7F3FA386108E0FFF7EFFA0246FB
:1024DC003B69D31A022B01D9032337E01D4B1B6830
:1024EC0003F00073002BF0D02FE01C4B00221A607D
:1024FC00FFF7DCFA386108E0FFF7D8FA02463B69CF
:10250C00D31A022B01D9032320E0124B1B6803F0D2
:10251C000073002BF0D118E07B68DB69012B01D133
:10252C00012313E00B4B5B68FB60FB6803F4803208
:10253C007B681B6A9A4206D1FB6803F470127B68B5
:10254C005B6A9A4201D0012300E000231846183739
:10255C00BD4680BD00100240007000406000424249
:10256C0080B584B000AF786039607B68002B01D1F6
:10257C000123D0E06A4B1B6803F007033A689A42C8
:10258C0010D9674B1B6823F0070265493B6813435E
:10259C000B60634B1B6803F007033A689A4201D047
:1025AC000123B8E07B681B6803F00203002B20D0EA
:1025BC007B681B6803F00403002B05D0594B5B6848
:1025CC00584A43F4E06353607B681B6803F00803CC
:1025DC00002B05D0534B5B68524A43F46053536055
:1025EC00504B5B6823F0F0027B689B684D491343AA
:1025FC004B607B681B6803F00103002B40D07B68A9
:10260C005B68012B07D1474B1B6803F40033002B8D
:10261C0015D101237FE07B685B68022B07D1414B0E
:10262C001B6803F00073002B09D1012373E03D4BB1
:10263C001B6803F00203002B01D101236BE0394B23
:10264C005B6823F003027B685B68364913434B607D
:10265C00FFF72CFAF8600AE0FFF728FA0246FB684D
:10266C00D31A41F28832934201D9032353E02D4B04
:10267C005B6803F00C027B685B689B009A42EBD1B1
:10268C00274B1B6803F007033A689A4210D2244B7D
:10269C001B6823F0070222493B6813430B60204B55
:1026AC001B6803F007033A689A4201D0012332E019
:1026BC007B681B6803F00403002B08D0194B5B6884
:1026CC0023F4E0627B68DB68164913434B607B683C
:1026DC001B6803F00803002B09D0124B5B6823F432
:1026EC0060527B681B69DB000E4913434B6000F0A2
:1026FC0021F802460B4B5B681B0903F00F030A49D8
:10270C00CB5C22FA03F3094A1360094B1B68184689
:10271C00FFF78AF9002318461037BD4680BD00BF6D
:10272C0000200240001002404C30000858000020ED
:10273C005C00002080B487B000AF0023FB60002356
:10274C00BB6000237B6100237B6000233B611E4B3D
:10275C005B68FB60FB6803F00C03042B02D0082BB6
:10276C0003D027E0194B3B6127E0FB689B0C03F07F
:10277C000F03174AD35C7B60FB6803F48033002B98
:10278C0010D0114B5B685B0C03F00103114AD35C56
:10279C00BB607B680D4A02FB03F2BB68B2FBF3F330
:1027AC007B6104E07B680C4A02FB03F37B617B6971
:1027BC003B6102E0054B3B6100BF3B6918461C378F
:1027CC00BD4680BC704700BF0010024000127A006A
:1027DC005C3000086C30000800093D0080B485B006
:1027EC0000AF78600A4B1B680A4AA2FB03235B0A02
:1027FC007A6802FB03F3FB6000BFFB685A1EFA60A9
:10280C00002BF9D100BF00BF1437BD4680BC704708
:10281C0058000020D34D621080B582B000AF7860B4
:10282C007B68002B01D1012341E07B6893F83D309C
:10283C00DBB2002B06D17B68002283F83C20786841
:10284C00FEF764FF7B68022283F83D207B681A68E0
:10285C007B6804331946104600F056FA7B68012257
:10286C0083F846207B68012283F83E207B68012296
:10287C0083F83F207B68012283F840207B6801228B
:10288C0083F841207B68012283F842207B68012277
:10289C0083F843207B68012283F844207B68012263
:1028AC0083F845207B68012283F83D2000231846DD
:1028BC000837BD4680BD000080B485B000AF78609D
:1028CC007B6893F83D30DBB2012B01D0012335E05E
:1028DC007B68022283F83D207B681B68DA687B6882
:1028EC001B6842F00102DA607B681B68164A93424F
:1028FC0009D07B681B68B3F1804F04D07B681B68E0
:10290C00124A934211D17B681B689B6803F0070342
:10291C00FB60FB68062B10D07B681B681A687B6811
:10292C001B6842F001021A6007E07B681B681A689A
:10293C007B681B6842F001021A60002318461437AA
:10294C00BD4680BC704700BF002C01400004004015
:10295C0080B584B000AF78607B681B68DB68FB6077
:10296C007B681B681B69BB60BB6803F00203002B10
:10297C0020D0FB6803F00203002B1BD07B681B6884
:10298C006FF002021A617B6801221A777B681B6860
:10299C009B6903F00303002B03D0786800F098F9CF
:1029AC0005E0786800F08BF9786800F09AF97B689C
:1029BC0000221A77BB6803F00403002B20D0FB68BD
:1029CC0003F00403002B1BD07B681B686FF0040220
:1029DC001A617B6802221A777B681B689B6903F477
:1029EC004073002B03D0786800F072F905E078682A
:1029FC0000F065F9786800F074F97B6800221A77AA
:102A0C00BB6803F00803002B20D0FB6803F008031D
:102A1C00002B1BD07B681B686FF008021A617B6867
:102A2C0004221A777B681B68DB6903F00303002B15
:102A3C0003D0786800F04CF905E0786800F03FF9B5
:102A4C00786800F04EF97B6800221A77BB6803F0B7
:102A5C001003002B20D0FB6803F01003002B1BD0BD
:102A6C007B681B686FF010021A617B6808221A776A
:102A7C007B681B68DB6903F44073002B03D0786818
:102A8C0000F026F905E0786800F019F9786800F094
:102A9C0028F97B6800221A77BB6803F00103002B2E
:102AAC000CD0FB6803F00103002B07D07B681B687C
:102ABC006FF001021A617868FEF794FCBB6803F0B2
:102ACC008003002B0CD0FB6803F08003002B07D095
:102ADC007B681B686FF080021A61786800F06FFAEF
:102AEC00BB6803F04003002B0CD0FB6803F04003E1
:102AFC00002B07D07B681B686FF040021A61786866
:102B0C0000F0F8F8BB6803F02003002B0CD0FB6836
:102B1C0003F02003002B07D07B681B686FF02002AA
:102B2C001A61786800F042FA00BF1037BD4680BDCC
:102B3C0080B584B000AF786039600023FB737B688C
:102B4C0093F83C30012B01D10223B4E07B680122C5
:102B5C0083F83C207B68022283F83D207B681B684D
:102B6C009B68BB60BB6823F07703BB60BB6823F436
:102B7C007F43BB607B681B68BA689A603B681B68C4
:102B8C00B3F5005F3ED0B3F5005F00F28780B3F57C
:102B9C00805F00F08680B3F5805F7FD8702B1AD0F1
:102BAC00702B7BD8602B50D0602B77D8502B3CD01F
:102BBC00502B73D8402B58D0402B6FD8302B64D06F
:102BCC00302B6BD8202B60D0202B67D8002B5CD0FF
:102BDC00102B5AD062E07B6818683B6899683B6898
:102BEC005A683B68DB6800F06AF97B681B689B6875
:102BFC00BB60BB6843F07703BB607B681B68BA683B
:102C0C009A604FE07B6818683B6899683B685A6823
:102C1C003B68DB6800F053F97B681B689A687B683B
:102C2C001B6842F480429A603CE07B6818683B6801
:102C3C0059683B68DB681A4600F0CAF87B681B6869
:102C4C005021184600F021F92CE07B6818683B688D
:102C5C0059683B68DB681A4600F0E8F87B681B682B
:102C6C006021184600F011F91CE07B6818683B687D
:102C7C0059683B68DB681A4600F0AAF87B681B6849
:102C8C004021184600F001F90CE07B681A683B689B
:102C9C001B681946104600F0F8F803E00123FB739B
:102CAC0000E000BF7B68012283F83D207B68002296
:102CBC0083F83C20FB7B18461037BD4680BD80B4A2
:102CCC0083B000AF786000BF0C37BD4680BC704746
:102CDC0080B483B000AF786000BF0C37BD4680BCB9
:102CEC00704780B483B000AF786000BF0C37BD462E
:102CFC0080BC704780B483B000AF786000BF0C37E5
:102D0C00BD4680BC7047000080B485B000AF7860D1
:102D1C0039607B681B68FB607B682B4A934207D049
:102D2C007B68B3F1804F03D07B68284A934208D16B
:102D3C00FB6823F07003FB603B685B68FA68134325
:102D4C00FB607B68204A934207D07B68B3F1804FCD
:102D5C0003D07B681D4A934208D1FB6823F440736F
:102D6C00FB603B68DB68FA681343FB60FB6823F08D
:102D7C0080023B685B691343FB607B68FA681A60EE
:102D8C003B689A687B68DA623B681A687B689A626F
:102D9C007B680D4A934203D13B681A697B681A63BE
:102DAC007B6801225A617B681B6903F00103002BCD
:102DBC0005D07B681B6923F001027B681A6100BF98
:102DCC001437BD4680BC7047002C01400004004005
:102DDC0080B487B000AFF860B9607A60FB681B6A9A
:102DEC007B61FB681B6A23F00102FB681A62FB68BB
:102DFC009B693B613B6923F0F0033B617B681B01E2
:102E0C003A6913433B617B6923F00A037B617A695E
:102E1C00BB6813437B61FB683A699A61FB687A690A
:102E2C001A6200BF1C37BD4680BC704780B487B0A7
:102E3C0000AFF860B9607A60FB681B6A7B61FB6865
:102E4C001B6A23F01002FB681A62FB689B693B61EA
:102E5C003B6923F470433B617B681B033A69134362
:102E6C003B617B6923F0A0037B61BB681B017A6922
:102E7C0013437B61FB683A699A61FB687A691A6251
:102E8C0000BF1C37BD4680BC704780B485B000AF16
:102E9C00786039607B689B68FB60FB6823F070038B
:102EAC00FB603A68FB68134343F00703FB607B68E5
:102EBC00FA689A6000BF1437BD4680BC704780B476
:102ECC0087B000AFF860B9607A603B60FB689B68C4
:102EDC007B617B6923F47F437B613B681A027B68CF
:102EEC001A43BB6813437A6913437B61FB687A69A5
:102EFC009A6000BF1C37BD4680BC704780B485B05B
:102F0C0000AF786039607B6893F83C30012B01D1BD
:102F1C00022341E07B68012283F83C207B6802227B
:102F2C0083F83D207B681B685B68FB607B681B68D3
:102F3C009B68BB60FB6823F07003FB603B681B68FD
:102F4C00FA681343FB607B681B68FA685A607B68FD
:102F5C001B68144A934209D07B681B68B3F1804FFD
:102F6C0004D07B681B68104A93420CD1BB6823F0D9
:102F7C008003BB603B685B68BA681343BB607B68CB
:102F8C001B68BA689A607B68012283F83D207B68D5
:102F9C00002283F83C20002318461437BD4680BC21
:102FAC00704700BF002C01400004004080B483B087
:102FBC0000AF786000BF0C37BD4680BC704780B452
:102FCC0083B000AF786000BF0C37BD4680BC704743
:102FDC0070B500260C4D0D4C641BA410A64209D1F3
:102FEC0000F022F800260A4D0A4C641BA410A642DD
:102FFC0005D170BD55F8043B98470136EEE755F8FE
:10300C00043B98470136F2E7703000087030000836
:10301C00703000087430000803460244934200D11B
:10302C00704703F8011BF9E7F8B500BFF8BC08BC02
:10303C009E467047F8B500BFF8BC08BC9E4670476A
:10304C00000000000000000001020304060708094C
:10305C0002030405060708090A0B0C0D0E0F1010CD
:04306C00010200005D
:043070003101000822
:043074000D01000842
:103078000100000001000000010000000100000044
:103088000100000001000000010000000100000034
:103098000100000001000000010000000100000024
:1030A800002000000040000000800000F401000043
:1030B800F4010000F4010000010000000500000018
:1030C800020000000300000000127A001000000057
:0430D80001000000F3
:04000005080019BD19
:00000001FF
